{"contracts/Gamerly.sol":{"GamerlyContract":{"abi":[{"inputs":[],"stateMutability":"nonpayable","type":"constructor"},{"inputs":[{"internalType":"string","name":"transactionId","type":"string"},{"internalType":"address","name":"profileAddress","type":"address"},{"internalType":"uint256","name":"amount","type":"uint256"}],"name":"deposit","outputs":[],"stateMutability":"nonpayable","type":"function"},{"inputs":[],"name":"readSomething","outputs":[{"internalType":"string","name":"","type":"string"}],"stateMutability":"view","type":"function"},{"inputs":[{"internalType":"string","name":"transactionId","type":"string"},{"internalType":"address","name":"profileAddress","type":"address"},{"internalType":"uint256","name":"amount","type":"uint256"}],"name":"withdraw","outputs":[],"stateMutability":"nonpayable","type":"function"},{"inputs":[{"internalType":"string","name":"something","type":"string"}],"name":"writeSomething","outputs":[],"stateMutability":"nonpayable","type":"function"}],"evm":{"bytecode":{"linkReferences":{},"object":"608060405234801561001057600080fd5b50336000806101000a81548173ffffffffffffffffffffffffffffffffffffffff021916908373ffffffffffffffffffffffffffffffffffffffff16021790555073a0b86991c6218b36c1d19d4a2e9eb0ce3606eb48600160006101000a81548173ffffffffffffffffffffffffffffffffffffffff021916908373ffffffffffffffffffffffffffffffffffffffff16021790555061170a806100b56000396000f3fe608060405234801561001057600080fd5b506004361061004c5760003560e01c80632a48ac9a146100515780635a73b0bf1461006d578063710ad36c14610089578063aa5cbd32146100a7575b600080fd5b61006b60048036038101906100669190610e96565b6100c3565b005b61008760048036038101906100829190610e96565b610604565b005b610091610a1d565b60405161009e9190610f84565b60405180910390f35b6100c160048036038101906100bc9190610fa6565b610aaf565b005b60008054906101000a900473ffffffffffffffffffffffffffffffffffffffff1673ffffffffffffffffffffffffffffffffffffffff163373ffffffffffffffffffffffffffffffffffffffff161461011b57600080fd5b6000600160009054906101000a900473ffffffffffffffffffffffffffffffffffffffff1673ffffffffffffffffffffffffffffffffffffffff166370a08231336040518263ffffffff1660e01b81526004016101789190610ffe565b602060405180830381865afa158015610195573d6000803e3d6000fd5b505050506040513d601f19601f820116820180604052508101906101b9919061102e565b90506101fc6040518060400160405280600781526020017f6465706f73697400000000000000000000000000000000000000000000000000815250858585610b1a565b61023b6040518060400160405280601281526020017f70726f66696c655573646342616c616e6365000000000000000000000000000081525082610bbc565b8181101561027e576040517f08c379a0000000000000000000000000000000000000000000000000000000008152600401610275906110a7565b60405180910390fd5b6000600160009054906101000a900473ffffffffffffffffffffffffffffffffffffffff1673ffffffffffffffffffffffffffffffffffffffff1663dd62ed3e85306040518363ffffffff1660e01b81526004016102dd9291906110c7565b602060405180830381865afa1580156102fa573d6000803e3d6000fd5b505050506040513d601f19601f8201168201806040525081019061031e919061102e565b905061035f6040518060400160405280600981526020017f616c6c6f77616e6365000000000000000000000000000000000000000000000081525082610bbc565b828110156103a2576040517f08c379a000000000000000000000000000000000000000000000000000000000815260040161039990611162565b60405180910390fd5b600160009054906101000a900473ffffffffffffffffffffffffffffffffffffffff1673ffffffffffffffffffffffffffffffffffffffff166323b872dd8530866040518463ffffffff1660e01b815260040161040193929190611191565b6020604051808303816000875af1158015610420573d6000803e3d6000fd5b505050506040513d601f19601f820116820180604052508101906104449190611200565b610483576040517f08c379a000000000000000000000000000000000000000000000000000000000815260040161047a90611279565b60405180910390fd5b60006040518060800160405280878152602001600060018111156104aa576104a9611299565b5b81526020018673ffffffffffffffffffffffffffffffffffffffff168152602001858152509050806003876040516104e29190611304565b908152602001604051809103902060008201518160000190816105059190611527565b5060208201518160010160006101000a81548160ff0219169083600181111561053157610530611299565b5b021790555060408201518160010160016101000a81548173ffffffffffffffffffffffffffffffffffffffff021916908373ffffffffffffffffffffffffffffffffffffffff16021790555060608201518160020155905050600460008673ffffffffffffffffffffffffffffffffffffffff1673ffffffffffffffffffffffffffffffffffffffff168152602001908152602001600020869080600181540180825580915050600190039060005260206000200160009091909190915090816105fb9190611527565b50505050505050565b60008054906101000a900473ffffffffffffffffffffffffffffffffffffffff1673ffffffffffffffffffffffffffffffffffffffff163373ffffffffffffffffffffffffffffffffffffffff161461065c57600080fd5b6000600160009054906101000a900473ffffffffffffffffffffffffffffffffffffffff1673ffffffffffffffffffffffffffffffffffffffff166370a08231306040518263ffffffff1660e01b81526004016106b99190610ffe565b602060405180830381865afa1580156106d6573d6000803e3d6000fd5b505050506040513d601f19601f820116820180604052508101906106fa919061102e565b905061073d6040518060400160405280600881526020017f7769746864726177000000000000000000000000000000000000000000000000815250858585610b1a565b61077c6040518060400160405280601381526020017f636f6e74726163745573646342616c616e63650000000000000000000000000081525082610bbc565b818110156107bf576040517f08c379a00000000000000000000000000000000000000000000000000000000081526004016107b6906110a7565b60405180910390fd5b600160009054906101000a900473ffffffffffffffffffffffffffffffffffffffff1673ffffffffffffffffffffffffffffffffffffffff1663a9059cbb84846040518363ffffffff1660e01b815260040161081c9291906115f9565b6020604051808303816000875af115801561083b573d6000803e3d6000fd5b505050506040513d601f19601f8201168201806040525081019061085f9190611200565b61089e576040517f08c379a000000000000000000000000000000000000000000000000000000000815260040161089590611279565b60405180910390fd5b600060405180608001604052808681526020016001808111156108c4576108c3611299565b5b81526020018573ffffffffffffffffffffffffffffffffffffffff168152602001848152509050806003866040516108fc9190611304565b9081526020016040518091039020600082015181600001908161091f9190611527565b5060208201518160010160006101000a81548160ff0219169083600181111561094b5761094a611299565b5b021790555060408201518160010160016101000a81548173ffffffffffffffffffffffffffffffffffffffff021916908373ffffffffffffffffffffffffffffffffffffffff16021790555060608201518160020155905050600460008573ffffffffffffffffffffffffffffffffffffffff1673ffffffffffffffffffffffffffffffffffffffff16815260200190815260200160002085908060018154018082558091505060019003906000526020600020016000909190919091509081610a159190611527565b505050505050565b606060028054610a2c9061134a565b80601f0160208091040260200160405190810160405280929190818152602001828054610a589061134a565b8015610aa55780601f10610a7a57610100808354040283529160200191610aa5565b820191906000526020600020905b815481529060010190602001808311610a8857829003601f168201915b5050505050905090565b60008054906101000a900473ffffffffffffffffffffffffffffffffffffffff1673ffffffffffffffffffffffffffffffffffffffff163373ffffffffffffffffffffffffffffffffffffffff1614610b0757600080fd5b8060029081610b169190611527565b5050565b610bb684848484604051602401610b349493929190611622565b6040516020818303038152906040527f7cc3c607000000000000000000000000000000000000000000000000000000007bffffffffffffffffffffffffffffffffffffffffffffffffffffffff19166020820180517bffffffffffffffffffffffffffffffffffffffffffffffffffffffff8381831617835250505050610c58565b50505050565b610c548282604051602401610bd2929190611675565b6040516020818303038152906040527fb60e72cc000000000000000000000000000000000000000000000000000000007bffffffffffffffffffffffffffffffffffffffffffffffffffffffff19166020820180517bffffffffffffffffffffffffffffffffffffffffffffffffffffffff8381831617835250505050610c58565b5050565b610c6f81610c67610c72610c93565b63ffffffff16565b50565b60006a636f6e736f6c652e6c6f679050600080835160208501845afa505050565b610c9e819050919050565b610ca66116a5565b565b6000604051905090565b600080fd5b600080fd5b600080fd5b600080fd5b6000601f19601f8301169050919050565b7f4e487b7100000000000000000000000000000000000000000000000000000000600052604160045260246000fd5b610d0f82610cc6565b810181811067ffffffffffffffff82111715610d2e57610d2d610cd7565b5b80604052505050565b6000610d41610ca8565b9050610d4d8282610d06565b919050565b600067ffffffffffffffff821115610d6d57610d6c610cd7565b5b610d7682610cc6565b9050602081019050919050565b82818337600083830152505050565b6000610da5610da084610d52565b610d37565b905082815260208101848484011115610dc157610dc0610cc1565b5b610dcc848285610d83565b509392505050565b600082601f830112610de957610de8610cbc565b5b8135610df9848260208601610d92565b91505092915050565b600073ffffffffffffffffffffffffffffffffffffffff82169050919050565b6000610e2d82610e02565b9050919050565b610e3d81610e22565b8114610e4857600080fd5b50565b600081359050610e5a81610e34565b92915050565b6000819050919050565b610e7381610e60565b8114610e7e57600080fd5b50565b600081359050610e9081610e6a565b92915050565b600080600060608486031215610eaf57610eae610cb2565b5b600084013567ffffffffffffffff811115610ecd57610ecc610cb7565b5b610ed986828701610dd4565b9350506020610eea86828701610e4b565b9250506040610efb86828701610e81565b9150509250925092565b600081519050919050565b600082825260208201905092915050565b60005b83811015610f3f578082015181840152602081019050610f24565b60008484015250505050565b6000610f5682610f05565b610f608185610f10565b9350610f70818560208601610f21565b610f7981610cc6565b840191505092915050565b60006020820190508181036000830152610f9e8184610f4b565b905092915050565b600060208284031215610fbc57610fbb610cb2565b5b600082013567ffffffffffffffff811115610fda57610fd9610cb7565b5b610fe684828501610dd4565b91505092915050565b610ff881610e22565b82525050565b60006020820190506110136000830184610fef565b92915050565b60008151905061102881610e6a565b92915050565b60006020828403121561104457611043610cb2565b5b600061105284828501611019565b91505092915050565b7f496e73756666696369656e7420555344432062616c616e636500000000000000600082015250565b6000611091601983610f10565b915061109c8261105b565b602082019050919050565b600060208201905081810360008301526110c081611084565b9050919050565b60006040820190506110dc6000830185610fef565b6110e96020830184610fef565b9392505050565b7f496e73756666696369656e7420616c6c6f77616e636520666f7220636f6e747260008201527f61637420746f207472616e736665722055534443000000000000000000000000602082015250565b600061114c603483610f10565b9150611157826110f0565b604082019050919050565b6000602082019050818103600083015261117b8161113f565b9050919050565b61118b81610e60565b82525050565b60006060820190506111a66000830186610fef565b6111b36020830185610fef565b6111c06040830184611182565b949350505050565b60008115159050919050565b6111dd816111c8565b81146111e857600080fd5b50565b6000815190506111fa816111d4565b92915050565b60006020828403121561121657611215610cb2565b5b6000611224848285016111eb565b91505092915050565b7f5472616e73666572206661696c65640000000000000000000000000000000000600082015250565b6000611263600f83610f10565b915061126e8261122d565b602082019050919050565b6000602082019050818103600083015261129281611256565b9050919050565b7f4e487b7100000000000000000000000000000000000000000000000000000000600052602160045260246000fd5b600081905092915050565b60006112de82610f05565b6112e881856112c8565b93506112f8818560208601610f21565b80840191505092915050565b600061131082846112d3565b915081905092915050565b7f4e487b7100000000000000000000000000000000000000000000000000000000600052602260045260246000fd5b6000600282049050600182168061136257607f821691505b6020821081036113755761137461131b565b5b50919050565b60008190508160005260206000209050919050565b60006020601f8301049050919050565b600082821b905092915050565b6000600883026113dd7fffffffffffffffffffffffffffffffffffffffffffffffffffffffffffffffff826113a0565b6113e786836113a0565b95508019841693508086168417925050509392505050565b6000819050919050565b600061142461141f61141a84610e60565b6113ff565b610e60565b9050919050565b6000819050919050565b61143e83611409565b61145261144a8261142b565b8484546113ad565b825550505050565b600090565b61146761145a565b611472818484611435565b505050565b5b818110156114965761148b60008261145f565b600181019050611478565b5050565b601f8211156114db576114ac8161137b565b6114b584611390565b810160208510156114c4578190505b6114d86114d085611390565b830182611477565b50505b505050565b600082821c905092915050565b60006114fe600019846008026114e0565b1980831691505092915050565b600061151783836114ed565b9150826002028217905092915050565b61153082610f05565b67ffffffffffffffff81111561154957611548610cd7565b5b611553825461134a565b61155e82828561149a565b600060209050601f831160018114611591576000841561157f578287015190505b611589858261150b565b8655506115f1565b601f19841661159f8661137b565b60005b828110156115c7578489015182556001820191506020850194506020810190506115a2565b868310156115e457848901516115e0601f8916826114ed565b8355505b6001600288020188555050505b505050505050565b600060408201905061160e6000830185610fef565b61161b6020830184611182565b9392505050565b6000608082019050818103600083015261163c8187610f4b565b905081810360208301526116508186610f4b565b905061165f6040830185610fef565b61166c6060830184611182565b95945050505050565b6000604082019050818103600083015261168f8185610f4b565b905061169e6020830184611182565b9392505050565b7f4e487b7100000000000000000000000000000000000000000000000000000000600052605160045260246000fdfea2646970667358221220ffbce28be0f6319d29924081402e62a1e15648eaa13f5a069f9ab28d37f2aca264736f6c63430008130033","opcodes":"PUSH1 0x80 PUSH1 0x40 MSTORE CALLVALUE DUP1 ISZERO PUSH2 0x10 JUMPI PUSH1 0x0 DUP1 REVERT JUMPDEST POP CALLER PUSH1 0x0 DUP1 PUSH2 0x100 EXP DUP2 SLOAD DUP2 PUSH20 0xFFFFFFFFFFFFFFFFFFFFFFFFFFFFFFFFFFFFFFFF MUL NOT AND SWAP1 DUP4 PUSH20 0xFFFFFFFFFFFFFFFFFFFFFFFFFFFFFFFFFFFFFFFF AND MUL OR SWAP1 SSTORE POP PUSH20 0xA0B86991C6218B36C1D19D4A2E9EB0CE3606EB48 PUSH1 0x1 PUSH1 0x0 PUSH2 0x100 EXP DUP2 SLOAD DUP2 PUSH20 0xFFFFFFFFFFFFFFFFFFFFFFFFFFFFFFFFFFFFFFFF MUL NOT AND SWAP1 DUP4 PUSH20 0xFFFFFFFFFFFFFFFFFFFFFFFFFFFFFFFFFFFFFFFF AND MUL OR SWAP1 SSTORE POP PUSH2 0x170A DUP1 PUSH2 0xB5 PUSH1 0x0 CODECOPY PUSH1 0x0 RETURN INVALID PUSH1 0x80 PUSH1 0x40 MSTORE CALLVALUE DUP1 ISZERO PUSH2 0x10 JUMPI PUSH1 0x0 DUP1 REVERT JUMPDEST POP PUSH1 0x4 CALLDATASIZE LT PUSH2 0x4C JUMPI PUSH1 0x0 CALLDATALOAD PUSH1 0xE0 SHR DUP1 PUSH4 0x2A48AC9A EQ PUSH2 0x51 JUMPI DUP1 PUSH4 0x5A73B0BF EQ PUSH2 0x6D JUMPI DUP1 PUSH4 0x710AD36C EQ PUSH2 0x89 JUMPI DUP1 PUSH4 0xAA5CBD32 EQ PUSH2 0xA7 JUMPI JUMPDEST PUSH1 0x0 DUP1 REVERT JUMPDEST PUSH2 0x6B PUSH1 0x4 DUP1 CALLDATASIZE SUB DUP2 ADD SWAP1 PUSH2 0x66 SWAP2 SWAP1 PUSH2 0xE96 JUMP JUMPDEST PUSH2 0xC3 JUMP JUMPDEST STOP JUMPDEST PUSH2 0x87 PUSH1 0x4 DUP1 CALLDATASIZE SUB DUP2 ADD SWAP1 PUSH2 0x82 SWAP2 SWAP1 PUSH2 0xE96 JUMP JUMPDEST PUSH2 0x604 JUMP JUMPDEST STOP JUMPDEST PUSH2 0x91 PUSH2 0xA1D JUMP JUMPDEST PUSH1 0x40 MLOAD PUSH2 0x9E SWAP2 SWAP1 PUSH2 0xF84 JUMP JUMPDEST PUSH1 0x40 MLOAD DUP1 SWAP2 SUB SWAP1 RETURN JUMPDEST PUSH2 0xC1 PUSH1 0x4 DUP1 CALLDATASIZE SUB DUP2 ADD SWAP1 PUSH2 0xBC SWAP2 SWAP1 PUSH2 0xFA6 JUMP JUMPDEST PUSH2 0xAAF JUMP JUMPDEST STOP JUMPDEST PUSH1 0x0 DUP1 SLOAD SWAP1 PUSH2 0x100 EXP SWAP1 DIV PUSH20 0xFFFFFFFFFFFFFFFFFFFFFFFFFFFFFFFFFFFFFFFF AND PUSH20 0xFFFFFFFFFFFFFFFFFFFFFFFFFFFFFFFFFFFFFFFF AND CALLER PUSH20 0xFFFFFFFFFFFFFFFFFFFFFFFFFFFFFFFFFFFFFFFF AND EQ PUSH2 0x11B JUMPI PUSH1 0x0 DUP1 REVERT JUMPDEST PUSH1 0x0 PUSH1 0x1 PUSH1 0x0 SWAP1 SLOAD SWAP1 PUSH2 0x100 EXP SWAP1 DIV PUSH20 0xFFFFFFFFFFFFFFFFFFFFFFFFFFFFFFFFFFFFFFFF AND PUSH20 0xFFFFFFFFFFFFFFFFFFFFFFFFFFFFFFFFFFFFFFFF AND PUSH4 0x70A08231 CALLER PUSH1 0x40 MLOAD DUP3 PUSH4 0xFFFFFFFF AND PUSH1 0xE0 SHL DUP2 MSTORE PUSH1 0x4 ADD PUSH2 0x178 SWAP2 SWAP1 PUSH2 0xFFE JUMP JUMPDEST PUSH1 0x20 PUSH1 0x40 MLOAD DUP1 DUP4 SUB DUP2 DUP7 GAS STATICCALL ISZERO DUP1 ISZERO PUSH2 0x195 JUMPI RETURNDATASIZE PUSH1 0x0 DUP1 RETURNDATACOPY RETURNDATASIZE PUSH1 0x0 REVERT JUMPDEST POP POP POP POP PUSH1 0x40 MLOAD RETURNDATASIZE PUSH1 0x1F NOT PUSH1 0x1F DUP3 ADD AND DUP3 ADD DUP1 PUSH1 0x40 MSTORE POP DUP2 ADD SWAP1 PUSH2 0x1B9 SWAP2 SWAP1 PUSH2 0x102E JUMP JUMPDEST SWAP1 POP PUSH2 0x1FC PUSH1 0x40 MLOAD DUP1 PUSH1 0x40 ADD PUSH1 0x40 MSTORE DUP1 PUSH1 0x7 DUP2 MSTORE PUSH1 0x20 ADD PUSH32 0x6465706F73697400000000000000000000000000000000000000000000000000 DUP2 MSTORE POP DUP6 DUP6 DUP6 PUSH2 0xB1A JUMP JUMPDEST PUSH2 0x23B PUSH1 0x40 MLOAD DUP1 PUSH1 0x40 ADD PUSH1 0x40 MSTORE DUP1 PUSH1 0x12 DUP2 MSTORE PUSH1 0x20 ADD PUSH32 0x70726F66696C655573646342616C616E63650000000000000000000000000000 DUP2 MSTORE POP DUP3 PUSH2 0xBBC JUMP JUMPDEST DUP2 DUP2 LT ISZERO PUSH2 0x27E JUMPI PUSH1 0x40 MLOAD PUSH32 0x8C379A000000000000000000000000000000000000000000000000000000000 DUP2 MSTORE PUSH1 0x4 ADD PUSH2 0x275 SWAP1 PUSH2 0x10A7 JUMP JUMPDEST PUSH1 0x40 MLOAD DUP1 SWAP2 SUB SWAP1 REVERT JUMPDEST PUSH1 0x0 PUSH1 0x1 PUSH1 0x0 SWAP1 SLOAD SWAP1 PUSH2 0x100 EXP SWAP1 DIV PUSH20 0xFFFFFFFFFFFFFFFFFFFFFFFFFFFFFFFFFFFFFFFF AND PUSH20 0xFFFFFFFFFFFFFFFFFFFFFFFFFFFFFFFFFFFFFFFF AND PUSH4 0xDD62ED3E DUP6 ADDRESS PUSH1 0x40 MLOAD DUP4 PUSH4 0xFFFFFFFF AND PUSH1 0xE0 SHL DUP2 MSTORE PUSH1 0x4 ADD PUSH2 0x2DD SWAP3 SWAP2 SWAP1 PUSH2 0x10C7 JUMP JUMPDEST PUSH1 0x20 PUSH1 0x40 MLOAD DUP1 DUP4 SUB DUP2 DUP7 GAS STATICCALL ISZERO DUP1 ISZERO PUSH2 0x2FA JUMPI RETURNDATASIZE PUSH1 0x0 DUP1 RETURNDATACOPY RETURNDATASIZE PUSH1 0x0 REVERT JUMPDEST POP POP POP POP PUSH1 0x40 MLOAD RETURNDATASIZE PUSH1 0x1F NOT PUSH1 0x1F DUP3 ADD AND DUP3 ADD DUP1 PUSH1 0x40 MSTORE POP DUP2 ADD SWAP1 PUSH2 0x31E SWAP2 SWAP1 PUSH2 0x102E JUMP JUMPDEST SWAP1 POP PUSH2 0x35F PUSH1 0x40 MLOAD DUP1 PUSH1 0x40 ADD PUSH1 0x40 MSTORE DUP1 PUSH1 0x9 DUP2 MSTORE PUSH1 0x20 ADD PUSH32 0x616C6C6F77616E63650000000000000000000000000000000000000000000000 DUP2 MSTORE POP DUP3 PUSH2 0xBBC JUMP JUMPDEST DUP3 DUP2 LT ISZERO PUSH2 0x3A2 JUMPI PUSH1 0x40 MLOAD PUSH32 0x8C379A000000000000000000000000000000000000000000000000000000000 DUP2 MSTORE PUSH1 0x4 ADD PUSH2 0x399 SWAP1 PUSH2 0x1162 JUMP JUMPDEST PUSH1 0x40 MLOAD DUP1 SWAP2 SUB SWAP1 REVERT JUMPDEST PUSH1 0x1 PUSH1 0x0 SWAP1 SLOAD SWAP1 PUSH2 0x100 EXP SWAP1 DIV PUSH20 0xFFFFFFFFFFFFFFFFFFFFFFFFFFFFFFFFFFFFFFFF AND PUSH20 0xFFFFFFFFFFFFFFFFFFFFFFFFFFFFFFFFFFFFFFFF AND PUSH4 0x23B872DD DUP6 ADDRESS DUP7 PUSH1 0x40 MLOAD DUP5 PUSH4 0xFFFFFFFF AND PUSH1 0xE0 SHL DUP2 MSTORE PUSH1 0x4 ADD PUSH2 0x401 SWAP4 SWAP3 SWAP2 SWAP1 PUSH2 0x1191 JUMP JUMPDEST PUSH1 0x20 PUSH1 0x40 MLOAD DUP1 DUP4 SUB DUP2 PUSH1 0x0 DUP8 GAS CALL ISZERO DUP1 ISZERO PUSH2 0x420 JUMPI RETURNDATASIZE PUSH1 0x0 DUP1 RETURNDATACOPY RETURNDATASIZE PUSH1 0x0 REVERT JUMPDEST POP POP POP POP PUSH1 0x40 MLOAD RETURNDATASIZE PUSH1 0x1F NOT PUSH1 0x1F DUP3 ADD AND DUP3 ADD DUP1 PUSH1 0x40 MSTORE POP DUP2 ADD SWAP1 PUSH2 0x444 SWAP2 SWAP1 PUSH2 0x1200 JUMP JUMPDEST PUSH2 0x483 JUMPI PUSH1 0x40 MLOAD PUSH32 0x8C379A000000000000000000000000000000000000000000000000000000000 DUP2 MSTORE PUSH1 0x4 ADD PUSH2 0x47A SWAP1 PUSH2 0x1279 JUMP JUMPDEST PUSH1 0x40 MLOAD DUP1 SWAP2 SUB SWAP1 REVERT JUMPDEST PUSH1 0x0 PUSH1 0x40 MLOAD DUP1 PUSH1 0x80 ADD PUSH1 0x40 MSTORE DUP1 DUP8 DUP2 MSTORE PUSH1 0x20 ADD PUSH1 0x0 PUSH1 0x1 DUP2 GT ISZERO PUSH2 0x4AA JUMPI PUSH2 0x4A9 PUSH2 0x1299 JUMP JUMPDEST JUMPDEST DUP2 MSTORE PUSH1 0x20 ADD DUP7 PUSH20 0xFFFFFFFFFFFFFFFFFFFFFFFFFFFFFFFFFFFFFFFF AND DUP2 MSTORE PUSH1 0x20 ADD DUP6 DUP2 MSTORE POP SWAP1 POP DUP1 PUSH1 0x3 DUP8 PUSH1 0x40 MLOAD PUSH2 0x4E2 SWAP2 SWAP1 PUSH2 0x1304 JUMP JUMPDEST SWAP1 DUP2 MSTORE PUSH1 0x20 ADD PUSH1 0x40 MLOAD DUP1 SWAP2 SUB SWAP1 KECCAK256 PUSH1 0x0 DUP3 ADD MLOAD DUP2 PUSH1 0x0 ADD SWAP1 DUP2 PUSH2 0x505 SWAP2 SWAP1 PUSH2 0x1527 JUMP JUMPDEST POP PUSH1 0x20 DUP3 ADD MLOAD DUP2 PUSH1 0x1 ADD PUSH1 0x0 PUSH2 0x100 EXP DUP2 SLOAD DUP2 PUSH1 0xFF MUL NOT AND SWAP1 DUP4 PUSH1 0x1 DUP2 GT ISZERO PUSH2 0x531 JUMPI PUSH2 0x530 PUSH2 0x1299 JUMP JUMPDEST JUMPDEST MUL OR SWAP1 SSTORE POP PUSH1 0x40 DUP3 ADD MLOAD DUP2 PUSH1 0x1 ADD PUSH1 0x1 PUSH2 0x100 EXP DUP2 SLOAD DUP2 PUSH20 0xFFFFFFFFFFFFFFFFFFFFFFFFFFFFFFFFFFFFFFFF MUL NOT AND SWAP1 DUP4 PUSH20 0xFFFFFFFFFFFFFFFFFFFFFFFFFFFFFFFFFFFFFFFF AND MUL OR SWAP1 SSTORE POP PUSH1 0x60 DUP3 ADD MLOAD DUP2 PUSH1 0x2 ADD SSTORE SWAP1 POP POP PUSH1 0x4 PUSH1 0x0 DUP7 PUSH20 0xFFFFFFFFFFFFFFFFFFFFFFFFFFFFFFFFFFFFFFFF AND PUSH20 0xFFFFFFFFFFFFFFFFFFFFFFFFFFFFFFFFFFFFFFFF AND DUP2 MSTORE PUSH1 0x20 ADD SWAP1 DUP2 MSTORE PUSH1 0x20 ADD PUSH1 0x0 KECCAK256 DUP7 SWAP1 DUP1 PUSH1 0x1 DUP2 SLOAD ADD DUP1 DUP3 SSTORE DUP1 SWAP2 POP POP PUSH1 0x1 SWAP1 SUB SWAP1 PUSH1 0x0 MSTORE PUSH1 0x20 PUSH1 0x0 KECCAK256 ADD PUSH1 0x0 SWAP1 SWAP2 SWAP1 SWAP2 SWAP1 SWAP2 POP SWAP1 DUP2 PUSH2 0x5FB SWAP2 SWAP1 PUSH2 0x1527 JUMP JUMPDEST POP POP POP POP POP POP POP JUMP JUMPDEST PUSH1 0x0 DUP1 SLOAD SWAP1 PUSH2 0x100 EXP SWAP1 DIV PUSH20 0xFFFFFFFFFFFFFFFFFFFFFFFFFFFFFFFFFFFFFFFF AND PUSH20 0xFFFFFFFFFFFFFFFFFFFFFFFFFFFFFFFFFFFFFFFF AND CALLER PUSH20 0xFFFFFFFFFFFFFFFFFFFFFFFFFFFFFFFFFFFFFFFF AND EQ PUSH2 0x65C JUMPI PUSH1 0x0 DUP1 REVERT JUMPDEST PUSH1 0x0 PUSH1 0x1 PUSH1 0x0 SWAP1 SLOAD SWAP1 PUSH2 0x100 EXP SWAP1 DIV PUSH20 0xFFFFFFFFFFFFFFFFFFFFFFFFFFFFFFFFFFFFFFFF AND PUSH20 0xFFFFFFFFFFFFFFFFFFFFFFFFFFFFFFFFFFFFFFFF AND PUSH4 0x70A08231 ADDRESS PUSH1 0x40 MLOAD DUP3 PUSH4 0xFFFFFFFF AND PUSH1 0xE0 SHL DUP2 MSTORE PUSH1 0x4 ADD PUSH2 0x6B9 SWAP2 SWAP1 PUSH2 0xFFE JUMP JUMPDEST PUSH1 0x20 PUSH1 0x40 MLOAD DUP1 DUP4 SUB DUP2 DUP7 GAS STATICCALL ISZERO DUP1 ISZERO PUSH2 0x6D6 JUMPI RETURNDATASIZE PUSH1 0x0 DUP1 RETURNDATACOPY RETURNDATASIZE PUSH1 0x0 REVERT JUMPDEST POP POP POP POP PUSH1 0x40 MLOAD RETURNDATASIZE PUSH1 0x1F NOT PUSH1 0x1F DUP3 ADD AND DUP3 ADD DUP1 PUSH1 0x40 MSTORE POP DUP2 ADD SWAP1 PUSH2 0x6FA SWAP2 SWAP1 PUSH2 0x102E JUMP JUMPDEST SWAP1 POP PUSH2 0x73D PUSH1 0x40 MLOAD DUP1 PUSH1 0x40 ADD PUSH1 0x40 MSTORE DUP1 PUSH1 0x8 DUP2 MSTORE PUSH1 0x20 ADD PUSH32 0x7769746864726177000000000000000000000000000000000000000000000000 DUP2 MSTORE POP DUP6 DUP6 DUP6 PUSH2 0xB1A JUMP JUMPDEST PUSH2 0x77C PUSH1 0x40 MLOAD DUP1 PUSH1 0x40 ADD PUSH1 0x40 MSTORE DUP1 PUSH1 0x13 DUP2 MSTORE PUSH1 0x20 ADD PUSH32 0x636F6E74726163745573646342616C616E636500000000000000000000000000 DUP2 MSTORE POP DUP3 PUSH2 0xBBC JUMP JUMPDEST DUP2 DUP2 LT ISZERO PUSH2 0x7BF JUMPI PUSH1 0x40 MLOAD PUSH32 0x8C379A000000000000000000000000000000000000000000000000000000000 DUP2 MSTORE PUSH1 0x4 ADD PUSH2 0x7B6 SWAP1 PUSH2 0x10A7 JUMP JUMPDEST PUSH1 0x40 MLOAD DUP1 SWAP2 SUB SWAP1 REVERT JUMPDEST PUSH1 0x1 PUSH1 0x0 SWAP1 SLOAD SWAP1 PUSH2 0x100 EXP SWAP1 DIV PUSH20 0xFFFFFFFFFFFFFFFFFFFFFFFFFFFFFFFFFFFFFFFF AND PUSH20 0xFFFFFFFFFFFFFFFFFFFFFFFFFFFFFFFFFFFFFFFF AND PUSH4 0xA9059CBB DUP5 DUP5 PUSH1 0x40 MLOAD DUP4 PUSH4 0xFFFFFFFF AND PUSH1 0xE0 SHL DUP2 MSTORE PUSH1 0x4 ADD PUSH2 0x81C SWAP3 SWAP2 SWAP1 PUSH2 0x15F9 JUMP JUMPDEST PUSH1 0x20 PUSH1 0x40 MLOAD DUP1 DUP4 SUB DUP2 PUSH1 0x0 DUP8 GAS CALL ISZERO DUP1 ISZERO PUSH2 0x83B JUMPI RETURNDATASIZE PUSH1 0x0 DUP1 RETURNDATACOPY RETURNDATASIZE PUSH1 0x0 REVERT JUMPDEST POP POP POP POP PUSH1 0x40 MLOAD RETURNDATASIZE PUSH1 0x1F NOT PUSH1 0x1F DUP3 ADD AND DUP3 ADD DUP1 PUSH1 0x40 MSTORE POP DUP2 ADD SWAP1 PUSH2 0x85F SWAP2 SWAP1 PUSH2 0x1200 JUMP JUMPDEST PUSH2 0x89E JUMPI PUSH1 0x40 MLOAD PUSH32 0x8C379A000000000000000000000000000000000000000000000000000000000 DUP2 MSTORE PUSH1 0x4 ADD PUSH2 0x895 SWAP1 PUSH2 0x1279 JUMP JUMPDEST PUSH1 0x40 MLOAD DUP1 SWAP2 SUB SWAP1 REVERT JUMPDEST PUSH1 0x0 PUSH1 0x40 MLOAD DUP1 PUSH1 0x80 ADD PUSH1 0x40 MSTORE DUP1 DUP7 DUP2 MSTORE PUSH1 0x20 ADD PUSH1 0x1 DUP1 DUP2 GT ISZERO PUSH2 0x8C4 JUMPI PUSH2 0x8C3 PUSH2 0x1299 JUMP JUMPDEST JUMPDEST DUP2 MSTORE PUSH1 0x20 ADD DUP6 PUSH20 0xFFFFFFFFFFFFFFFFFFFFFFFFFFFFFFFFFFFFFFFF AND DUP2 MSTORE PUSH1 0x20 ADD DUP5 DUP2 MSTORE POP SWAP1 POP DUP1 PUSH1 0x3 DUP7 PUSH1 0x40 MLOAD PUSH2 0x8FC SWAP2 SWAP1 PUSH2 0x1304 JUMP JUMPDEST SWAP1 DUP2 MSTORE PUSH1 0x20 ADD PUSH1 0x40 MLOAD DUP1 SWAP2 SUB SWAP1 KECCAK256 PUSH1 0x0 DUP3 ADD MLOAD DUP2 PUSH1 0x0 ADD SWAP1 DUP2 PUSH2 0x91F SWAP2 SWAP1 PUSH2 0x1527 JUMP JUMPDEST POP PUSH1 0x20 DUP3 ADD MLOAD DUP2 PUSH1 0x1 ADD PUSH1 0x0 PUSH2 0x100 EXP DUP2 SLOAD DUP2 PUSH1 0xFF MUL NOT AND SWAP1 DUP4 PUSH1 0x1 DUP2 GT ISZERO PUSH2 0x94B JUMPI PUSH2 0x94A PUSH2 0x1299 JUMP JUMPDEST JUMPDEST MUL OR SWAP1 SSTORE POP PUSH1 0x40 DUP3 ADD MLOAD DUP2 PUSH1 0x1 ADD PUSH1 0x1 PUSH2 0x100 EXP DUP2 SLOAD DUP2 PUSH20 0xFFFFFFFFFFFFFFFFFFFFFFFFFFFFFFFFFFFFFFFF MUL NOT AND SWAP1 DUP4 PUSH20 0xFFFFFFFFFFFFFFFFFFFFFFFFFFFFFFFFFFFFFFFF AND MUL OR SWAP1 SSTORE POP PUSH1 0x60 DUP3 ADD MLOAD DUP2 PUSH1 0x2 ADD SSTORE SWAP1 POP POP PUSH1 0x4 PUSH1 0x0 DUP6 PUSH20 0xFFFFFFFFFFFFFFFFFFFFFFFFFFFFFFFFFFFFFFFF AND PUSH20 0xFFFFFFFFFFFFFFFFFFFFFFFFFFFFFFFFFFFFFFFF AND DUP2 MSTORE PUSH1 0x20 ADD SWAP1 DUP2 MSTORE PUSH1 0x20 ADD PUSH1 0x0 KECCAK256 DUP6 SWAP1 DUP1 PUSH1 0x1 DUP2 SLOAD ADD DUP1 DUP3 SSTORE DUP1 SWAP2 POP POP PUSH1 0x1 SWAP1 SUB SWAP1 PUSH1 0x0 MSTORE PUSH1 0x20 PUSH1 0x0 KECCAK256 ADD PUSH1 0x0 SWAP1 SWAP2 SWAP1 SWAP2 SWAP1 SWAP2 POP SWAP1 DUP2 PUSH2 0xA15 SWAP2 SWAP1 PUSH2 0x1527 JUMP JUMPDEST POP POP POP POP POP POP JUMP JUMPDEST PUSH1 0x60 PUSH1 0x2 DUP1 SLOAD PUSH2 0xA2C SWAP1 PUSH2 0x134A JUMP JUMPDEST DUP1 PUSH1 0x1F ADD PUSH1 0x20 DUP1 SWAP2 DIV MUL PUSH1 0x20 ADD PUSH1 0x40 MLOAD SWAP1 DUP2 ADD PUSH1 0x40 MSTORE DUP1 SWAP3 SWAP2 SWAP1 DUP2 DUP2 MSTORE PUSH1 0x20 ADD DUP3 DUP1 SLOAD PUSH2 0xA58 SWAP1 PUSH2 0x134A JUMP JUMPDEST DUP1 ISZERO PUSH2 0xAA5 JUMPI DUP1 PUSH1 0x1F LT PUSH2 0xA7A JUMPI PUSH2 0x100 DUP1 DUP4 SLOAD DIV MUL DUP4 MSTORE SWAP2 PUSH1 0x20 ADD SWAP2 PUSH2 0xAA5 JUMP JUMPDEST DUP3 ADD SWAP2 SWAP1 PUSH1 0x0 MSTORE PUSH1 0x20 PUSH1 0x0 KECCAK256 SWAP1 JUMPDEST DUP2 SLOAD DUP2 MSTORE SWAP1 PUSH1 0x1 ADD SWAP1 PUSH1 0x20 ADD DUP1 DUP4 GT PUSH2 0xA88 JUMPI DUP3 SWAP1 SUB PUSH1 0x1F AND DUP3 ADD SWAP2 JUMPDEST POP POP POP POP POP SWAP1 POP SWAP1 JUMP JUMPDEST PUSH1 0x0 DUP1 SLOAD SWAP1 PUSH2 0x100 EXP SWAP1 DIV PUSH20 0xFFFFFFFFFFFFFFFFFFFFFFFFFFFFFFFFFFFFFFFF AND PUSH20 0xFFFFFFFFFFFFFFFFFFFFFFFFFFFFFFFFFFFFFFFF AND CALLER PUSH20 0xFFFFFFFFFFFFFFFFFFFFFFFFFFFFFFFFFFFFFFFF AND EQ PUSH2 0xB07 JUMPI PUSH1 0x0 DUP1 REVERT JUMPDEST DUP1 PUSH1 0x2 SWAP1 DUP2 PUSH2 0xB16 SWAP2 SWAP1 PUSH2 0x1527 JUMP JUMPDEST POP POP JUMP JUMPDEST PUSH2 0xBB6 DUP5 DUP5 DUP5 DUP5 PUSH1 0x40 MLOAD PUSH1 0x24 ADD PUSH2 0xB34 SWAP5 SWAP4 SWAP3 SWAP2 SWAP1 PUSH2 0x1622 JUMP JUMPDEST PUSH1 0x40 MLOAD PUSH1 0x20 DUP2 DUP4 SUB SUB DUP2 MSTORE SWAP1 PUSH1 0x40 MSTORE PUSH32 0x7CC3C60700000000000000000000000000000000000000000000000000000000 PUSH28 0xFFFFFFFFFFFFFFFFFFFFFFFFFFFFFFFFFFFFFFFFFFFFFFFFFFFFFFFF NOT AND PUSH1 0x20 DUP3 ADD DUP1 MLOAD PUSH28 0xFFFFFFFFFFFFFFFFFFFFFFFFFFFFFFFFFFFFFFFFFFFFFFFFFFFFFFFF DUP4 DUP2 DUP4 AND OR DUP4 MSTORE POP POP POP POP PUSH2 0xC58 JUMP JUMPDEST POP POP POP POP JUMP JUMPDEST PUSH2 0xC54 DUP3 DUP3 PUSH1 0x40 MLOAD PUSH1 0x24 ADD PUSH2 0xBD2 SWAP3 SWAP2 SWAP1 PUSH2 0x1675 JUMP JUMPDEST PUSH1 0x40 MLOAD PUSH1 0x20 DUP2 DUP4 SUB SUB DUP2 MSTORE SWAP1 PUSH1 0x40 MSTORE PUSH32 0xB60E72CC00000000000000000000000000000000000000000000000000000000 PUSH28 0xFFFFFFFFFFFFFFFFFFFFFFFFFFFFFFFFFFFFFFFFFFFFFFFFFFFFFFFF NOT AND PUSH1 0x20 DUP3 ADD DUP1 MLOAD PUSH28 0xFFFFFFFFFFFFFFFFFFFFFFFFFFFFFFFFFFFFFFFFFFFFFFFFFFFFFFFF DUP4 DUP2 DUP4 AND OR DUP4 MSTORE POP POP POP POP PUSH2 0xC58 JUMP JUMPDEST POP POP JUMP JUMPDEST PUSH2 0xC6F DUP2 PUSH2 0xC67 PUSH2 0xC72 PUSH2 0xC93 JUMP JUMPDEST PUSH4 0xFFFFFFFF AND JUMP JUMPDEST POP JUMP JUMPDEST PUSH1 0x0 PUSH11 0x636F6E736F6C652E6C6F67 SWAP1 POP PUSH1 0x0 DUP1 DUP4 MLOAD PUSH1 0x20 DUP6 ADD DUP5 GAS STATICCALL POP POP POP JUMP JUMPDEST PUSH2 0xC9E DUP2 SWAP1 POP SWAP2 SWAP1 POP JUMP JUMPDEST PUSH2 0xCA6 PUSH2 0x16A5 JUMP JUMPDEST JUMP JUMPDEST PUSH1 0x0 PUSH1 0x40 MLOAD SWAP1 POP SWAP1 JUMP JUMPDEST PUSH1 0x0 DUP1 REVERT JUMPDEST PUSH1 0x0 DUP1 REVERT JUMPDEST PUSH1 0x0 DUP1 REVERT JUMPDEST PUSH1 0x0 DUP1 REVERT JUMPDEST PUSH1 0x0 PUSH1 0x1F NOT PUSH1 0x1F DUP4 ADD AND SWAP1 POP SWAP2 SWAP1 POP JUMP JUMPDEST PUSH32 0x4E487B7100000000000000000000000000000000000000000000000000000000 PUSH1 0x0 MSTORE PUSH1 0x41 PUSH1 0x4 MSTORE PUSH1 0x24 PUSH1 0x0 REVERT JUMPDEST PUSH2 0xD0F DUP3 PUSH2 0xCC6 JUMP JUMPDEST DUP2 ADD DUP2 DUP2 LT PUSH8 0xFFFFFFFFFFFFFFFF DUP3 GT OR ISZERO PUSH2 0xD2E JUMPI PUSH2 0xD2D PUSH2 0xCD7 JUMP JUMPDEST JUMPDEST DUP1 PUSH1 0x40 MSTORE POP POP POP JUMP JUMPDEST PUSH1 0x0 PUSH2 0xD41 PUSH2 0xCA8 JUMP JUMPDEST SWAP1 POP PUSH2 0xD4D DUP3 DUP3 PUSH2 0xD06 JUMP JUMPDEST SWAP2 SWAP1 POP JUMP JUMPDEST PUSH1 0x0 PUSH8 0xFFFFFFFFFFFFFFFF DUP3 GT ISZERO PUSH2 0xD6D JUMPI PUSH2 0xD6C PUSH2 0xCD7 JUMP JUMPDEST JUMPDEST PUSH2 0xD76 DUP3 PUSH2 0xCC6 JUMP JUMPDEST SWAP1 POP PUSH1 0x20 DUP2 ADD SWAP1 POP SWAP2 SWAP1 POP JUMP JUMPDEST DUP3 DUP2 DUP4 CALLDATACOPY PUSH1 0x0 DUP4 DUP4 ADD MSTORE POP POP POP JUMP JUMPDEST PUSH1 0x0 PUSH2 0xDA5 PUSH2 0xDA0 DUP5 PUSH2 0xD52 JUMP JUMPDEST PUSH2 0xD37 JUMP JUMPDEST SWAP1 POP DUP3 DUP2 MSTORE PUSH1 0x20 DUP2 ADD DUP5 DUP5 DUP5 ADD GT ISZERO PUSH2 0xDC1 JUMPI PUSH2 0xDC0 PUSH2 0xCC1 JUMP JUMPDEST JUMPDEST PUSH2 0xDCC DUP5 DUP3 DUP6 PUSH2 0xD83 JUMP JUMPDEST POP SWAP4 SWAP3 POP POP POP JUMP JUMPDEST PUSH1 0x0 DUP3 PUSH1 0x1F DUP4 ADD SLT PUSH2 0xDE9 JUMPI PUSH2 0xDE8 PUSH2 0xCBC JUMP JUMPDEST JUMPDEST DUP2 CALLDATALOAD PUSH2 0xDF9 DUP5 DUP3 PUSH1 0x20 DUP7 ADD PUSH2 0xD92 JUMP JUMPDEST SWAP2 POP POP SWAP3 SWAP2 POP POP JUMP JUMPDEST PUSH1 0x0 PUSH20 0xFFFFFFFFFFFFFFFFFFFFFFFFFFFFFFFFFFFFFFFF DUP3 AND SWAP1 POP SWAP2 SWAP1 POP JUMP JUMPDEST PUSH1 0x0 PUSH2 0xE2D DUP3 PUSH2 0xE02 JUMP JUMPDEST SWAP1 POP SWAP2 SWAP1 POP JUMP JUMPDEST PUSH2 0xE3D DUP2 PUSH2 0xE22 JUMP JUMPDEST DUP2 EQ PUSH2 0xE48 JUMPI PUSH1 0x0 DUP1 REVERT JUMPDEST POP JUMP JUMPDEST PUSH1 0x0 DUP2 CALLDATALOAD SWAP1 POP PUSH2 0xE5A DUP2 PUSH2 0xE34 JUMP JUMPDEST SWAP3 SWAP2 POP POP JUMP JUMPDEST PUSH1 0x0 DUP2 SWAP1 POP SWAP2 SWAP1 POP JUMP JUMPDEST PUSH2 0xE73 DUP2 PUSH2 0xE60 JUMP JUMPDEST DUP2 EQ PUSH2 0xE7E JUMPI PUSH1 0x0 DUP1 REVERT JUMPDEST POP JUMP JUMPDEST PUSH1 0x0 DUP2 CALLDATALOAD SWAP1 POP PUSH2 0xE90 DUP2 PUSH2 0xE6A JUMP JUMPDEST SWAP3 SWAP2 POP POP JUMP JUMPDEST PUSH1 0x0 DUP1 PUSH1 0x0 PUSH1 0x60 DUP5 DUP7 SUB SLT ISZERO PUSH2 0xEAF JUMPI PUSH2 0xEAE PUSH2 0xCB2 JUMP JUMPDEST JUMPDEST PUSH1 0x0 DUP5 ADD CALLDATALOAD PUSH8 0xFFFFFFFFFFFFFFFF DUP2 GT ISZERO PUSH2 0xECD JUMPI PUSH2 0xECC PUSH2 0xCB7 JUMP JUMPDEST JUMPDEST PUSH2 0xED9 DUP7 DUP3 DUP8 ADD PUSH2 0xDD4 JUMP JUMPDEST SWAP4 POP POP PUSH1 0x20 PUSH2 0xEEA DUP7 DUP3 DUP8 ADD PUSH2 0xE4B JUMP JUMPDEST SWAP3 POP POP PUSH1 0x40 PUSH2 0xEFB DUP7 DUP3 DUP8 ADD PUSH2 0xE81 JUMP JUMPDEST SWAP2 POP POP SWAP3 POP SWAP3 POP SWAP3 JUMP JUMPDEST PUSH1 0x0 DUP2 MLOAD SWAP1 POP SWAP2 SWAP1 POP JUMP JUMPDEST PUSH1 0x0 DUP3 DUP3 MSTORE PUSH1 0x20 DUP3 ADD SWAP1 POP SWAP3 SWAP2 POP POP JUMP JUMPDEST PUSH1 0x0 JUMPDEST DUP4 DUP2 LT ISZERO PUSH2 0xF3F JUMPI DUP1 DUP3 ADD MLOAD DUP2 DUP5 ADD MSTORE PUSH1 0x20 DUP2 ADD SWAP1 POP PUSH2 0xF24 JUMP JUMPDEST PUSH1 0x0 DUP5 DUP5 ADD MSTORE POP POP POP POP JUMP JUMPDEST PUSH1 0x0 PUSH2 0xF56 DUP3 PUSH2 0xF05 JUMP JUMPDEST PUSH2 0xF60 DUP2 DUP6 PUSH2 0xF10 JUMP JUMPDEST SWAP4 POP PUSH2 0xF70 DUP2 DUP6 PUSH1 0x20 DUP7 ADD PUSH2 0xF21 JUMP JUMPDEST PUSH2 0xF79 DUP2 PUSH2 0xCC6 JUMP JUMPDEST DUP5 ADD SWAP2 POP POP SWAP3 SWAP2 POP POP JUMP JUMPDEST PUSH1 0x0 PUSH1 0x20 DUP3 ADD SWAP1 POP DUP2 DUP2 SUB PUSH1 0x0 DUP4 ADD MSTORE PUSH2 0xF9E DUP2 DUP5 PUSH2 0xF4B JUMP JUMPDEST SWAP1 POP SWAP3 SWAP2 POP POP JUMP JUMPDEST PUSH1 0x0 PUSH1 0x20 DUP3 DUP5 SUB SLT ISZERO PUSH2 0xFBC JUMPI PUSH2 0xFBB PUSH2 0xCB2 JUMP JUMPDEST JUMPDEST PUSH1 0x0 DUP3 ADD CALLDATALOAD PUSH8 0xFFFFFFFFFFFFFFFF DUP2 GT ISZERO PUSH2 0xFDA JUMPI PUSH2 0xFD9 PUSH2 0xCB7 JUMP JUMPDEST JUMPDEST PUSH2 0xFE6 DUP5 DUP3 DUP6 ADD PUSH2 0xDD4 JUMP JUMPDEST SWAP2 POP POP SWAP3 SWAP2 POP POP JUMP JUMPDEST PUSH2 0xFF8 DUP2 PUSH2 0xE22 JUMP JUMPDEST DUP3 MSTORE POP POP JUMP JUMPDEST PUSH1 0x0 PUSH1 0x20 DUP3 ADD SWAP1 POP PUSH2 0x1013 PUSH1 0x0 DUP4 ADD DUP5 PUSH2 0xFEF JUMP JUMPDEST SWAP3 SWAP2 POP POP JUMP JUMPDEST PUSH1 0x0 DUP2 MLOAD SWAP1 POP PUSH2 0x1028 DUP2 PUSH2 0xE6A JUMP JUMPDEST SWAP3 SWAP2 POP POP JUMP JUMPDEST PUSH1 0x0 PUSH1 0x20 DUP3 DUP5 SUB SLT ISZERO PUSH2 0x1044 JUMPI PUSH2 0x1043 PUSH2 0xCB2 JUMP JUMPDEST JUMPDEST PUSH1 0x0 PUSH2 0x1052 DUP5 DUP3 DUP6 ADD PUSH2 0x1019 JUMP JUMPDEST SWAP2 POP POP SWAP3 SWAP2 POP POP JUMP JUMPDEST PUSH32 0x496E73756666696369656E7420555344432062616C616E636500000000000000 PUSH1 0x0 DUP3 ADD MSTORE POP JUMP JUMPDEST PUSH1 0x0 PUSH2 0x1091 PUSH1 0x19 DUP4 PUSH2 0xF10 JUMP JUMPDEST SWAP2 POP PUSH2 0x109C DUP3 PUSH2 0x105B JUMP JUMPDEST PUSH1 0x20 DUP3 ADD SWAP1 POP SWAP2 SWAP1 POP JUMP JUMPDEST PUSH1 0x0 PUSH1 0x20 DUP3 ADD SWAP1 POP DUP2 DUP2 SUB PUSH1 0x0 DUP4 ADD MSTORE PUSH2 0x10C0 DUP2 PUSH2 0x1084 JUMP JUMPDEST SWAP1 POP SWAP2 SWAP1 POP JUMP JUMPDEST PUSH1 0x0 PUSH1 0x40 DUP3 ADD SWAP1 POP PUSH2 0x10DC PUSH1 0x0 DUP4 ADD DUP6 PUSH2 0xFEF JUMP JUMPDEST PUSH2 0x10E9 PUSH1 0x20 DUP4 ADD DUP5 PUSH2 0xFEF JUMP JUMPDEST SWAP4 SWAP3 POP POP POP JUMP JUMPDEST PUSH32 0x496E73756666696369656E7420616C6C6F77616E636520666F7220636F6E7472 PUSH1 0x0 DUP3 ADD MSTORE PUSH32 0x61637420746F207472616E736665722055534443000000000000000000000000 PUSH1 0x20 DUP3 ADD MSTORE POP JUMP JUMPDEST PUSH1 0x0 PUSH2 0x114C PUSH1 0x34 DUP4 PUSH2 0xF10 JUMP JUMPDEST SWAP2 POP PUSH2 0x1157 DUP3 PUSH2 0x10F0 JUMP JUMPDEST PUSH1 0x40 DUP3 ADD SWAP1 POP SWAP2 SWAP1 POP JUMP JUMPDEST PUSH1 0x0 PUSH1 0x20 DUP3 ADD SWAP1 POP DUP2 DUP2 SUB PUSH1 0x0 DUP4 ADD MSTORE PUSH2 0x117B DUP2 PUSH2 0x113F JUMP JUMPDEST SWAP1 POP SWAP2 SWAP1 POP JUMP JUMPDEST PUSH2 0x118B DUP2 PUSH2 0xE60 JUMP JUMPDEST DUP3 MSTORE POP POP JUMP JUMPDEST PUSH1 0x0 PUSH1 0x60 DUP3 ADD SWAP1 POP PUSH2 0x11A6 PUSH1 0x0 DUP4 ADD DUP7 PUSH2 0xFEF JUMP JUMPDEST PUSH2 0x11B3 PUSH1 0x20 DUP4 ADD DUP6 PUSH2 0xFEF JUMP JUMPDEST PUSH2 0x11C0 PUSH1 0x40 DUP4 ADD DUP5 PUSH2 0x1182 JUMP JUMPDEST SWAP5 SWAP4 POP POP POP POP JUMP JUMPDEST PUSH1 0x0 DUP2 ISZERO ISZERO SWAP1 POP SWAP2 SWAP1 POP JUMP JUMPDEST PUSH2 0x11DD DUP2 PUSH2 0x11C8 JUMP JUMPDEST DUP2 EQ PUSH2 0x11E8 JUMPI PUSH1 0x0 DUP1 REVERT JUMPDEST POP JUMP JUMPDEST PUSH1 0x0 DUP2 MLOAD SWAP1 POP PUSH2 0x11FA DUP2 PUSH2 0x11D4 JUMP JUMPDEST SWAP3 SWAP2 POP POP JUMP JUMPDEST PUSH1 0x0 PUSH1 0x20 DUP3 DUP5 SUB SLT ISZERO PUSH2 0x1216 JUMPI PUSH2 0x1215 PUSH2 0xCB2 JUMP JUMPDEST JUMPDEST PUSH1 0x0 PUSH2 0x1224 DUP5 DUP3 DUP6 ADD PUSH2 0x11EB JUMP JUMPDEST SWAP2 POP POP SWAP3 SWAP2 POP POP JUMP JUMPDEST PUSH32 0x5472616E73666572206661696C65640000000000000000000000000000000000 PUSH1 0x0 DUP3 ADD MSTORE POP JUMP JUMPDEST PUSH1 0x0 PUSH2 0x1263 PUSH1 0xF DUP4 PUSH2 0xF10 JUMP JUMPDEST SWAP2 POP PUSH2 0x126E DUP3 PUSH2 0x122D JUMP JUMPDEST PUSH1 0x20 DUP3 ADD SWAP1 POP SWAP2 SWAP1 POP JUMP JUMPDEST PUSH1 0x0 PUSH1 0x20 DUP3 ADD SWAP1 POP DUP2 DUP2 SUB PUSH1 0x0 DUP4 ADD MSTORE PUSH2 0x1292 DUP2 PUSH2 0x1256 JUMP JUMPDEST SWAP1 POP SWAP2 SWAP1 POP JUMP JUMPDEST PUSH32 0x4E487B7100000000000000000000000000000000000000000000000000000000 PUSH1 0x0 MSTORE PUSH1 0x21 PUSH1 0x4 MSTORE PUSH1 0x24 PUSH1 0x0 REVERT JUMPDEST PUSH1 0x0 DUP2 SWAP1 POP SWAP3 SWAP2 POP POP JUMP JUMPDEST PUSH1 0x0 PUSH2 0x12DE DUP3 PUSH2 0xF05 JUMP JUMPDEST PUSH2 0x12E8 DUP2 DUP6 PUSH2 0x12C8 JUMP JUMPDEST SWAP4 POP PUSH2 0x12F8 DUP2 DUP6 PUSH1 0x20 DUP7 ADD PUSH2 0xF21 JUMP JUMPDEST DUP1 DUP5 ADD SWAP2 POP POP SWAP3 SWAP2 POP POP JUMP JUMPDEST PUSH1 0x0 PUSH2 0x1310 DUP3 DUP5 PUSH2 0x12D3 JUMP JUMPDEST SWAP2 POP DUP2 SWAP1 POP SWAP3 SWAP2 POP POP JUMP JUMPDEST PUSH32 0x4E487B7100000000000000000000000000000000000000000000000000000000 PUSH1 0x0 MSTORE PUSH1 0x22 PUSH1 0x4 MSTORE PUSH1 0x24 PUSH1 0x0 REVERT JUMPDEST PUSH1 0x0 PUSH1 0x2 DUP3 DIV SWAP1 POP PUSH1 0x1 DUP3 AND DUP1 PUSH2 0x1362 JUMPI PUSH1 0x7F DUP3 AND SWAP2 POP JUMPDEST PUSH1 0x20 DUP3 LT DUP2 SUB PUSH2 0x1375 JUMPI PUSH2 0x1374 PUSH2 0x131B JUMP JUMPDEST JUMPDEST POP SWAP2 SWAP1 POP JUMP JUMPDEST PUSH1 0x0 DUP2 SWAP1 POP DUP2 PUSH1 0x0 MSTORE PUSH1 0x20 PUSH1 0x0 KECCAK256 SWAP1 POP SWAP2 SWAP1 POP JUMP JUMPDEST PUSH1 0x0 PUSH1 0x20 PUSH1 0x1F DUP4 ADD DIV SWAP1 POP SWAP2 SWAP1 POP JUMP JUMPDEST PUSH1 0x0 DUP3 DUP3 SHL SWAP1 POP SWAP3 SWAP2 POP POP JUMP JUMPDEST PUSH1 0x0 PUSH1 0x8 DUP4 MUL PUSH2 0x13DD PUSH32 0xFFFFFFFFFFFFFFFFFFFFFFFFFFFFFFFFFFFFFFFFFFFFFFFFFFFFFFFFFFFFFFFF DUP3 PUSH2 0x13A0 JUMP JUMPDEST PUSH2 0x13E7 DUP7 DUP4 PUSH2 0x13A0 JUMP JUMPDEST SWAP6 POP DUP1 NOT DUP5 AND SWAP4 POP DUP1 DUP7 AND DUP5 OR SWAP3 POP POP POP SWAP4 SWAP3 POP POP POP JUMP JUMPDEST PUSH1 0x0 DUP2 SWAP1 POP SWAP2 SWAP1 POP JUMP JUMPDEST PUSH1 0x0 PUSH2 0x1424 PUSH2 0x141F PUSH2 0x141A DUP5 PUSH2 0xE60 JUMP JUMPDEST PUSH2 0x13FF JUMP JUMPDEST PUSH2 0xE60 JUMP JUMPDEST SWAP1 POP SWAP2 SWAP1 POP JUMP JUMPDEST PUSH1 0x0 DUP2 SWAP1 POP SWAP2 SWAP1 POP JUMP JUMPDEST PUSH2 0x143E DUP4 PUSH2 0x1409 JUMP JUMPDEST PUSH2 0x1452 PUSH2 0x144A DUP3 PUSH2 0x142B JUMP JUMPDEST DUP5 DUP5 SLOAD PUSH2 0x13AD JUMP JUMPDEST DUP3 SSTORE POP POP POP POP JUMP JUMPDEST PUSH1 0x0 SWAP1 JUMP JUMPDEST PUSH2 0x1467 PUSH2 0x145A JUMP JUMPDEST PUSH2 0x1472 DUP2 DUP5 DUP5 PUSH2 0x1435 JUMP JUMPDEST POP POP POP JUMP JUMPDEST JUMPDEST DUP2 DUP2 LT ISZERO PUSH2 0x1496 JUMPI PUSH2 0x148B PUSH1 0x0 DUP3 PUSH2 0x145F JUMP JUMPDEST PUSH1 0x1 DUP2 ADD SWAP1 POP PUSH2 0x1478 JUMP JUMPDEST POP POP JUMP JUMPDEST PUSH1 0x1F DUP3 GT ISZERO PUSH2 0x14DB JUMPI PUSH2 0x14AC DUP2 PUSH2 0x137B JUMP JUMPDEST PUSH2 0x14B5 DUP5 PUSH2 0x1390 JUMP JUMPDEST DUP2 ADD PUSH1 0x20 DUP6 LT ISZERO PUSH2 0x14C4 JUMPI DUP2 SWAP1 POP JUMPDEST PUSH2 0x14D8 PUSH2 0x14D0 DUP6 PUSH2 0x1390 JUMP JUMPDEST DUP4 ADD DUP3 PUSH2 0x1477 JUMP JUMPDEST POP POP JUMPDEST POP POP POP JUMP JUMPDEST PUSH1 0x0 DUP3 DUP3 SHR SWAP1 POP SWAP3 SWAP2 POP POP JUMP JUMPDEST PUSH1 0x0 PUSH2 0x14FE PUSH1 0x0 NOT DUP5 PUSH1 0x8 MUL PUSH2 0x14E0 JUMP JUMPDEST NOT DUP1 DUP4 AND SWAP2 POP POP SWAP3 SWAP2 POP POP JUMP JUMPDEST PUSH1 0x0 PUSH2 0x1517 DUP4 DUP4 PUSH2 0x14ED JUMP JUMPDEST SWAP2 POP DUP3 PUSH1 0x2 MUL DUP3 OR SWAP1 POP SWAP3 SWAP2 POP POP JUMP JUMPDEST PUSH2 0x1530 DUP3 PUSH2 0xF05 JUMP JUMPDEST PUSH8 0xFFFFFFFFFFFFFFFF DUP2 GT ISZERO PUSH2 0x1549 JUMPI PUSH2 0x1548 PUSH2 0xCD7 JUMP JUMPDEST JUMPDEST PUSH2 0x1553 DUP3 SLOAD PUSH2 0x134A JUMP JUMPDEST PUSH2 0x155E DUP3 DUP3 DUP6 PUSH2 0x149A JUMP JUMPDEST PUSH1 0x0 PUSH1 0x20 SWAP1 POP PUSH1 0x1F DUP4 GT PUSH1 0x1 DUP2 EQ PUSH2 0x1591 JUMPI PUSH1 0x0 DUP5 ISZERO PUSH2 0x157F JUMPI DUP3 DUP8 ADD MLOAD SWAP1 POP JUMPDEST PUSH2 0x1589 DUP6 DUP3 PUSH2 0x150B JUMP JUMPDEST DUP7 SSTORE POP PUSH2 0x15F1 JUMP JUMPDEST PUSH1 0x1F NOT DUP5 AND PUSH2 0x159F DUP7 PUSH2 0x137B JUMP JUMPDEST PUSH1 0x0 JUMPDEST DUP3 DUP2 LT ISZERO PUSH2 0x15C7 JUMPI DUP5 DUP10 ADD MLOAD DUP3 SSTORE PUSH1 0x1 DUP3 ADD SWAP2 POP PUSH1 0x20 DUP6 ADD SWAP5 POP PUSH1 0x20 DUP2 ADD SWAP1 POP PUSH2 0x15A2 JUMP JUMPDEST DUP7 DUP4 LT ISZERO PUSH2 0x15E4 JUMPI DUP5 DUP10 ADD MLOAD PUSH2 0x15E0 PUSH1 0x1F DUP10 AND DUP3 PUSH2 0x14ED JUMP JUMPDEST DUP4 SSTORE POP JUMPDEST PUSH1 0x1 PUSH1 0x2 DUP9 MUL ADD DUP9 SSTORE POP POP POP JUMPDEST POP POP POP POP POP POP JUMP JUMPDEST PUSH1 0x0 PUSH1 0x40 DUP3 ADD SWAP1 POP PUSH2 0x160E PUSH1 0x0 DUP4 ADD DUP6 PUSH2 0xFEF JUMP JUMPDEST PUSH2 0x161B PUSH1 0x20 DUP4 ADD DUP5 PUSH2 0x1182 JUMP JUMPDEST SWAP4 SWAP3 POP POP POP JUMP JUMPDEST PUSH1 0x0 PUSH1 0x80 DUP3 ADD SWAP1 POP DUP2 DUP2 SUB PUSH1 0x0 DUP4 ADD MSTORE PUSH2 0x163C DUP2 DUP8 PUSH2 0xF4B JUMP JUMPDEST SWAP1 POP DUP2 DUP2 SUB PUSH1 0x20 DUP4 ADD MSTORE PUSH2 0x1650 DUP2 DUP7 PUSH2 0xF4B JUMP JUMPDEST SWAP1 POP PUSH2 0x165F PUSH1 0x40 DUP4 ADD DUP6 PUSH2 0xFEF JUMP JUMPDEST PUSH2 0x166C PUSH1 0x60 DUP4 ADD DUP5 PUSH2 0x1182 JUMP JUMPDEST SWAP6 SWAP5 POP POP POP POP POP JUMP JUMPDEST PUSH1 0x0 PUSH1 0x40 DUP3 ADD SWAP1 POP DUP2 DUP2 SUB PUSH1 0x0 DUP4 ADD MSTORE PUSH2 0x168F DUP2 DUP6 PUSH2 0xF4B JUMP JUMPDEST SWAP1 POP PUSH2 0x169E PUSH1 0x20 DUP4 ADD DUP5 PUSH2 0x1182 JUMP JUMPDEST SWAP4 SWAP3 POP POP POP JUMP JUMPDEST PUSH32 0x4E487B7100000000000000000000000000000000000000000000000000000000 PUSH1 0x0 MSTORE PUSH1 0x51 PUSH1 0x4 MSTORE PUSH1 0x24 PUSH1 0x0 REVERT INVALID LOG2 PUSH5 0x6970667358 0x22 SLT KECCAK256 SELFDESTRUCT 0xBC 0xE2 DUP12 0xE0 0xF6 BALANCE SWAP14 0x29 SWAP3 BLOCKHASH DUP2 BLOCKHASH 0x2E PUSH3 0xA1E156 BASEFEE 0xEA LOG1 EXTCODEHASH GAS MOD SWAP16 SWAP11 0xB2 DUP14 CALLDATACOPY CALLCODE 0xAC LOG2 PUSH5 0x736F6C6343 STOP ADDMOD SGT STOP CALLER "},"methodIdentifiers":{"deposit(string,address,uint256)":"2a48ac9a","readSomething()":"710ad36c","withdraw(string,address,uint256)":"5a73b0bf","writeSomething(string)":"aa5cbd32"}}}}}