{
  "_format": "hh-sol-artifact-1",
  "contractName": "GamerlyContract",
  "sourceName": "contracts/Gamerly.sol",
  "abi": [
    {
      "inputs": [],
      "stateMutability": "nonpayable",
      "type": "constructor"
    },
    {
      "inputs": [
        {
          "internalType": "string",
          "name": "transactionId",
          "type": "string"
        },
        {
          "internalType": "address",
          "name": "profileAddress",
          "type": "address"
        },
        {
          "internalType": "uint256",
          "name": "amount",
          "type": "uint256"
        }
      ],
      "name": "deposit",
      "outputs": [],
      "stateMutability": "nonpayable",
      "type": "function"
    },
    {
      "inputs": [],
      "name": "readSomething",
      "outputs": [
        {
          "internalType": "string",
          "name": "",
          "type": "string"
        }
      ],
      "stateMutability": "view",
      "type": "function"
    },
    {
      "inputs": [
        {
          "internalType": "string",
          "name": "transactionId",
          "type": "string"
        },
        {
          "internalType": "address",
          "name": "profileAddress",
          "type": "address"
        },
        {
          "internalType": "uint256",
          "name": "amount",
          "type": "uint256"
        }
      ],
      "name": "withdraw",
      "outputs": [],
      "stateMutability": "nonpayable",
      "type": "function"
    },
    {
      "inputs": [
        {
          "internalType": "string",
          "name": "something",
          "type": "string"
        }
      ],
      "name": "writeSomething",
      "outputs": [],
      "stateMutability": "nonpayable",
      "type": "function"
    }
  ],
  "bytecode": "0x608060405234801561001057600080fd5b50336000806101000a81548173ffffffffffffffffffffffffffffffffffffffff021916908373ffffffffffffffffffffffffffffffffffffffff16021790555073a0b86991c6218b36c1d19d4a2e9eb0ce3606eb48600160006101000a81548173ffffffffffffffffffffffffffffffffffffffff021916908373ffffffffffffffffffffffffffffffffffffffff16021790555061170a806100b56000396000f3fe608060405234801561001057600080fd5b506004361061004c5760003560e01c80632a48ac9a146100515780635a73b0bf1461006d578063710ad36c14610089578063aa5cbd32146100a7575b600080fd5b61006b60048036038101906100669190610e96565b6100c3565b005b61008760048036038101906100829190610e96565b610604565b005b610091610a1d565b60405161009e9190610f84565b60405180910390f35b6100c160048036038101906100bc9190610fa6565b610aaf565b005b60008054906101000a900473ffffffffffffffffffffffffffffffffffffffff1673ffffffffffffffffffffffffffffffffffffffff163373ffffffffffffffffffffffffffffffffffffffff161461011b57600080fd5b6000600160009054906101000a900473ffffffffffffffffffffffffffffffffffffffff1673ffffffffffffffffffffffffffffffffffffffff166370a08231336040518263ffffffff1660e01b81526004016101789190610ffe565b602060405180830381865afa158015610195573d6000803e3d6000fd5b505050506040513d601f19601f820116820180604052508101906101b9919061102e565b90506101fc6040518060400160405280600781526020017f6465706f73697400000000000000000000000000000000000000000000000000815250858585610b1a565b61023b6040518060400160405280601281526020017f70726f66696c655573646342616c616e6365000000000000000000000000000081525082610bbc565b8181101561027e576040517f08c379a0000000000000000000000000000000000000000000000000000000008152600401610275906110a7565b60405180910390fd5b6000600160009054906101000a900473ffffffffffffffffffffffffffffffffffffffff1673ffffffffffffffffffffffffffffffffffffffff1663dd62ed3e85306040518363ffffffff1660e01b81526004016102dd9291906110c7565b602060405180830381865afa1580156102fa573d6000803e3d6000fd5b505050506040513d601f19601f8201168201806040525081019061031e919061102e565b905061035f6040518060400160405280600981526020017f616c6c6f77616e6365000000000000000000000000000000000000000000000081525082610bbc565b828110156103a2576040517f08c379a000000000000000000000000000000000000000000000000000000000815260040161039990611162565b60405180910390fd5b600160009054906101000a900473ffffffffffffffffffffffffffffffffffffffff1673ffffffffffffffffffffffffffffffffffffffff166323b872dd8530866040518463ffffffff1660e01b815260040161040193929190611191565b6020604051808303816000875af1158015610420573d6000803e3d6000fd5b505050506040513d601f19601f820116820180604052508101906104449190611200565b610483576040517f08c379a000000000000000000000000000000000000000000000000000000000815260040161047a90611279565b60405180910390fd5b60006040518060800160405280878152602001600060018111156104aa576104a9611299565b5b81526020018673ffffffffffffffffffffffffffffffffffffffff168152602001858152509050806003876040516104e29190611304565b908152602001604051809103902060008201518160000190816105059190611527565b5060208201518160010160006101000a81548160ff0219169083600181111561053157610530611299565b5b021790555060408201518160010160016101000a81548173ffffffffffffffffffffffffffffffffffffffff021916908373ffffffffffffffffffffffffffffffffffffffff16021790555060608201518160020155905050600460008673ffffffffffffffffffffffffffffffffffffffff1673ffffffffffffffffffffffffffffffffffffffff168152602001908152602001600020869080600181540180825580915050600190039060005260206000200160009091909190915090816105fb9190611527565b50505050505050565b60008054906101000a900473ffffffffffffffffffffffffffffffffffffffff1673ffffffffffffffffffffffffffffffffffffffff163373ffffffffffffffffffffffffffffffffffffffff161461065c57600080fd5b6000600160009054906101000a900473ffffffffffffffffffffffffffffffffffffffff1673ffffffffffffffffffffffffffffffffffffffff166370a08231306040518263ffffffff1660e01b81526004016106b99190610ffe565b602060405180830381865afa1580156106d6573d6000803e3d6000fd5b505050506040513d601f19601f820116820180604052508101906106fa919061102e565b905061073d6040518060400160405280600881526020017f7769746864726177000000000000000000000000000000000000000000000000815250858585610b1a565b61077c6040518060400160405280601381526020017f636f6e74726163745573646342616c616e63650000000000000000000000000081525082610bbc565b818110156107bf576040517f08c379a00000000000000000000000000000000000000000000000000000000081526004016107b6906110a7565b60405180910390fd5b600160009054906101000a900473ffffffffffffffffffffffffffffffffffffffff1673ffffffffffffffffffffffffffffffffffffffff1663a9059cbb84846040518363ffffffff1660e01b815260040161081c9291906115f9565b6020604051808303816000875af115801561083b573d6000803e3d6000fd5b505050506040513d601f19601f8201168201806040525081019061085f9190611200565b61089e576040517f08c379a000000000000000000000000000000000000000000000000000000000815260040161089590611279565b60405180910390fd5b600060405180608001604052808681526020016001808111156108c4576108c3611299565b5b81526020018573ffffffffffffffffffffffffffffffffffffffff168152602001848152509050806003866040516108fc9190611304565b9081526020016040518091039020600082015181600001908161091f9190611527565b5060208201518160010160006101000a81548160ff0219169083600181111561094b5761094a611299565b5b021790555060408201518160010160016101000a81548173ffffffffffffffffffffffffffffffffffffffff021916908373ffffffffffffffffffffffffffffffffffffffff16021790555060608201518160020155905050600460008573ffffffffffffffffffffffffffffffffffffffff1673ffffffffffffffffffffffffffffffffffffffff16815260200190815260200160002085908060018154018082558091505060019003906000526020600020016000909190919091509081610a159190611527565b505050505050565b606060028054610a2c9061134a565b80601f0160208091040260200160405190810160405280929190818152602001828054610a589061134a565b8015610aa55780601f10610a7a57610100808354040283529160200191610aa5565b820191906000526020600020905b815481529060010190602001808311610a8857829003601f168201915b5050505050905090565b60008054906101000a900473ffffffffffffffffffffffffffffffffffffffff1673ffffffffffffffffffffffffffffffffffffffff163373ffffffffffffffffffffffffffffffffffffffff1614610b0757600080fd5b8060029081610b169190611527565b5050565b610bb684848484604051602401610b349493929190611622565b6040516020818303038152906040527f7cc3c607000000000000000000000000000000000000000000000000000000007bffffffffffffffffffffffffffffffffffffffffffffffffffffffff19166020820180517bffffffffffffffffffffffffffffffffffffffffffffffffffffffff8381831617835250505050610c58565b50505050565b610c548282604051602401610bd2929190611675565b6040516020818303038152906040527fb60e72cc000000000000000000000000000000000000000000000000000000007bffffffffffffffffffffffffffffffffffffffffffffffffffffffff19166020820180517bffffffffffffffffffffffffffffffffffffffffffffffffffffffff8381831617835250505050610c58565b5050565b610c6f81610c67610c72610c93565b63ffffffff16565b50565b60006a636f6e736f6c652e6c6f679050600080835160208501845afa505050565b610c9e819050919050565b610ca66116a5565b565b6000604051905090565b600080fd5b600080fd5b600080fd5b600080fd5b6000601f19601f8301169050919050565b7f4e487b7100000000000000000000000000000000000000000000000000000000600052604160045260246000fd5b610d0f82610cc6565b810181811067ffffffffffffffff82111715610d2e57610d2d610cd7565b5b80604052505050565b6000610d41610ca8565b9050610d4d8282610d06565b919050565b600067ffffffffffffffff821115610d6d57610d6c610cd7565b5b610d7682610cc6565b9050602081019050919050565b82818337600083830152505050565b6000610da5610da084610d52565b610d37565b905082815260208101848484011115610dc157610dc0610cc1565b5b610dcc848285610d83565b509392505050565b600082601f830112610de957610de8610cbc565b5b8135610df9848260208601610d92565b91505092915050565b600073ffffffffffffffffffffffffffffffffffffffff82169050919050565b6000610e2d82610e02565b9050919050565b610e3d81610e22565b8114610e4857600080fd5b50565b600081359050610e5a81610e34565b92915050565b6000819050919050565b610e7381610e60565b8114610e7e57600080fd5b50565b600081359050610e9081610e6a565b92915050565b600080600060608486031215610eaf57610eae610cb2565b5b600084013567ffffffffffffffff811115610ecd57610ecc610cb7565b5b610ed986828701610dd4565b9350506020610eea86828701610e4b565b9250506040610efb86828701610e81565b9150509250925092565b600081519050919050565b600082825260208201905092915050565b60005b83811015610f3f578082015181840152602081019050610f24565b60008484015250505050565b6000610f5682610f05565b610f608185610f10565b9350610f70818560208601610f21565b610f7981610cc6565b840191505092915050565b60006020820190508181036000830152610f9e8184610f4b565b905092915050565b600060208284031215610fbc57610fbb610cb2565b5b600082013567ffffffffffffffff811115610fda57610fd9610cb7565b5b610fe684828501610dd4565b91505092915050565b610ff881610e22565b82525050565b60006020820190506110136000830184610fef565b92915050565b60008151905061102881610e6a565b92915050565b60006020828403121561104457611043610cb2565b5b600061105284828501611019565b91505092915050565b7f496e73756666696369656e7420555344432062616c616e636500000000000000600082015250565b6000611091601983610f10565b915061109c8261105b565b602082019050919050565b600060208201905081810360008301526110c081611084565b9050919050565b60006040820190506110dc6000830185610fef565b6110e96020830184610fef565b9392505050565b7f496e73756666696369656e7420616c6c6f77616e636520666f7220636f6e747260008201527f61637420746f207472616e736665722055534443000000000000000000000000602082015250565b600061114c603483610f10565b9150611157826110f0565b604082019050919050565b6000602082019050818103600083015261117b8161113f565b9050919050565b61118b81610e60565b82525050565b60006060820190506111a66000830186610fef565b6111b36020830185610fef565b6111c06040830184611182565b949350505050565b60008115159050919050565b6111dd816111c8565b81146111e857600080fd5b50565b6000815190506111fa816111d4565b92915050565b60006020828403121561121657611215610cb2565b5b6000611224848285016111eb565b91505092915050565b7f5472616e73666572206661696c65640000000000000000000000000000000000600082015250565b6000611263600f83610f10565b915061126e8261122d565b602082019050919050565b6000602082019050818103600083015261129281611256565b9050919050565b7f4e487b7100000000000000000000000000000000000000000000000000000000600052602160045260246000fd5b600081905092915050565b60006112de82610f05565b6112e881856112c8565b93506112f8818560208601610f21565b80840191505092915050565b600061131082846112d3565b915081905092915050565b7f4e487b7100000000000000000000000000000000000000000000000000000000600052602260045260246000fd5b6000600282049050600182168061136257607f821691505b6020821081036113755761137461131b565b5b50919050565b60008190508160005260206000209050919050565b60006020601f8301049050919050565b600082821b905092915050565b6000600883026113dd7fffffffffffffffffffffffffffffffffffffffffffffffffffffffffffffffff826113a0565b6113e786836113a0565b95508019841693508086168417925050509392505050565b6000819050919050565b600061142461141f61141a84610e60565b6113ff565b610e60565b9050919050565b6000819050919050565b61143e83611409565b61145261144a8261142b565b8484546113ad565b825550505050565b600090565b61146761145a565b611472818484611435565b505050565b5b818110156114965761148b60008261145f565b600181019050611478565b5050565b601f8211156114db576114ac8161137b565b6114b584611390565b810160208510156114c4578190505b6114d86114d085611390565b830182611477565b50505b505050565b600082821c905092915050565b60006114fe600019846008026114e0565b1980831691505092915050565b600061151783836114ed565b9150826002028217905092915050565b61153082610f05565b67ffffffffffffffff81111561154957611548610cd7565b5b611553825461134a565b61155e82828561149a565b600060209050601f831160018114611591576000841561157f578287015190505b611589858261150b565b8655506115f1565b601f19841661159f8661137b565b60005b828110156115c7578489015182556001820191506020850194506020810190506115a2565b868310156115e457848901516115e0601f8916826114ed565b8355505b6001600288020188555050505b505050505050565b600060408201905061160e6000830185610fef565b61161b6020830184611182565b9392505050565b6000608082019050818103600083015261163c8187610f4b565b905081810360208301526116508186610f4b565b905061165f6040830185610fef565b61166c6060830184611182565b95945050505050565b6000604082019050818103600083015261168f8185610f4b565b905061169e6020830184611182565b9392505050565b7f4e487b7100000000000000000000000000000000000000000000000000000000600052605160045260246000fdfea2646970667358221220ffbce28be0f6319d29924081402e62a1e15648eaa13f5a069f9ab28d37f2aca264736f6c63430008130033",
  "linkReferences": {},
  "deployedLinkReferences": {}
}